{
  "_format": "hh-sol-artifact-1",
  "contractName": "NFTGiftMarketplace",
  "sourceName": "contracts/GiftCard.sol",
  "abi": [
    {
      "inputs": [],
      "stateMutability": "nonpayable",
      "type": "constructor"
    },
    {
      "anonymous": false,
      "inputs": [
        {
          "indexed": true,
          "internalType": "address",
          "name": "owner",
          "type": "address"
        },
        {
          "indexed": true,
          "internalType": "address",
          "name": "approved",
          "type": "address"
        },
        {
          "indexed": true,
          "internalType": "uint256",
          "name": "tokenId",
          "type": "uint256"
        }
      ],
      "name": "Approval",
      "type": "event"
    },
    {
      "anonymous": false,
      "inputs": [
        {
          "indexed": true,
          "internalType": "address",
          "name": "owner",
          "type": "address"
        },
        {
          "indexed": true,
          "internalType": "address",
          "name": "operator",
          "type": "address"
        },
        {
          "indexed": false,
          "internalType": "bool",
          "name": "approved",
          "type": "bool"
        }
      ],
      "name": "ApprovalForAll",
      "type": "event"
    },
    {
      "anonymous": false,
      "inputs": [
        {
          "indexed": true,
          "internalType": "uint256",
          "name": "backgroundId",
          "type": "uint256"
        },
        {
          "indexed": true,
          "internalType": "address",
          "name": "artist",
          "type": "address"
        },
        {
          "indexed": false,
          "internalType": "string",
          "name": "imageURI",
          "type": "string"
        },
        {
          "indexed": false,
          "internalType": "string",
          "name": "category",
          "type": "string"
        }
      ],
      "name": "BackgroundMinted",
      "type": "event"
    },
    {
      "anonymous": false,
      "inputs": [
        {
          "indexed": false,
          "internalType": "uint256",
          "name": "_fromTokenId",
          "type": "uint256"
        },
        {
          "indexed": false,
          "internalType": "uint256",
          "name": "_toTokenId",
          "type": "uint256"
        }
      ],
      "name": "BatchMetadataUpdate",
      "type": "event"
    },
    {
      "anonymous": false,
      "inputs": [
        {
          "indexed": true,
          "internalType": "uint256",
          "name": "giftCardId",
          "type": "uint256"
        },
        {
          "indexed": true,
          "internalType": "address",
          "name": "recipient",
          "type": "address"
        }
      ],
      "name": "GiftCardClaimed",
      "type": "event"
    },
    {
      "anonymous": false,
      "inputs": [
        {
          "indexed": true,
          "internalType": "uint256",
          "name": "giftCardId",
          "type": "uint256"
        },
        {
          "indexed": true,
          "internalType": "address",
          "name": "creator",
          "type": "address"
        },
        {
          "indexed": false,
          "internalType": "uint256",
          "name": "price",
          "type": "uint256"
        },
        {
          "indexed": false,
          "internalType": "uint256",
          "name": "backgroundId",
          "type": "uint256"
        }
      ],
      "name": "GiftCardCreated",
      "type": "event"
    },
    {
      "anonymous": false,
      "inputs": [
        {
          "indexed": true,
          "internalType": "uint256",
          "name": "giftCardId",
          "type": "uint256"
        },
        {
          "indexed": true,
          "internalType": "address",
          "name": "buyer",
          "type": "address"
        },
        {
          "indexed": false,
          "internalType": "string",
          "name": "message",
          "type": "string"
        }
      ],
      "name": "GiftCardPurchased",
      "type": "event"
    },
    {
      "anonymous": false,
      "inputs": [
        {
          "indexed": true,
          "internalType": "uint256",
          "name": "giftCardId",
          "type": "uint256"
        },
        {
          "indexed": true,
          "internalType": "address",
          "name": "from",
          "type": "address"
        },
        {
          "indexed": true,
          "internalType": "address",
          "name": "to",
          "type": "address"
        }
      ],
      "name": "GiftCardTransferred",
      "type": "event"
    },
    {
      "anonymous": false,
      "inputs": [
        {
          "indexed": false,
          "internalType": "uint256",
          "name": "_tokenId",
          "type": "uint256"
        }
      ],
      "name": "MetadataUpdate",
      "type": "event"
    },
    {
      "anonymous": false,
      "inputs": [
        {
          "indexed": true,
          "internalType": "address",
          "name": "previousOwner",
          "type": "address"
        },
        {
          "indexed": true,
          "internalType": "address",
          "name": "newOwner",
          "type": "address"
        }
      ],
      "name": "OwnershipTransferred",
      "type": "event"
    },
    {
      "anonymous": false,
      "inputs": [
        {
          "indexed": true,
          "internalType": "address",
          "name": "from",
          "type": "address"
        },
        {
          "indexed": true,
          "internalType": "address",
          "name": "to",
          "type": "address"
        },
        {
          "indexed": true,
          "internalType": "uint256",
          "name": "tokenId",
          "type": "uint256"
        }
      ],
      "name": "Transfer",
      "type": "event"
    },
    {
      "inputs": [
        {
          "internalType": "address",
          "name": "to",
          "type": "address"
        },
        {
          "internalType": "uint256",
          "name": "tokenId",
          "type": "uint256"
        }
      ],
      "name": "approve",
      "outputs": [],
      "stateMutability": "nonpayable",
      "type": "function"
    },
    {
      "inputs": [
        {
          "internalType": "uint256",
          "name": "",
          "type": "uint256"
        }
      ],
      "name": "backgrounds",
      "outputs": [
        {
          "internalType": "address",
          "name": "artist",
          "type": "address"
        },
        {
          "internalType": "string",
          "name": "imageURI",
          "type": "string"
        },
        {
          "internalType": "string",
          "name": "category",
          "type": "string"
        },
        {
          "internalType": "uint256",
          "name": "usageCount",
          "type": "uint256"
        }
      ],
      "stateMutability": "view",
      "type": "function"
    },
    {
      "inputs": [
        {
          "internalType": "address",
          "name": "owner",
          "type": "address"
        }
      ],
      "name": "balanceOf",
      "outputs": [
        {
          "internalType": "uint256",
          "name": "",
          "type": "uint256"
        }
      ],
      "stateMutability": "view",
      "type": "function"
    },
    {
      "inputs": [
        {
          "internalType": "uint256",
          "name": "giftCardId",
          "type": "uint256"
        },
        {
          "internalType": "string",
          "name": "message",
          "type": "string"
        }
      ],
      "name": "buyGiftCard",
      "outputs": [],
      "stateMutability": "payable",
      "type": "function"
    },
    {
      "inputs": [
        {
          "internalType": "uint256",
          "name": "giftCardId",
          "type": "uint256"
        },
        {
          "internalType": "string",
          "name": "secret",
          "type": "string"
        }
      ],
      "name": "claimGiftCard",
      "outputs": [],
      "stateMutability": "nonpayable",
      "type": "function"
    },
    {
      "inputs": [
        {
          "internalType": "uint256",
          "name": "backgroundId",
          "type": "uint256"
        },
        {
          "internalType": "uint256",
          "name": "price",
          "type": "uint256"
        },
        {
          "internalType": "string",
          "name": "message",
          "type": "string"
        }
      ],
      "name": "createGiftCard",
      "outputs": [],
      "stateMutability": "nonpayable",
      "type": "function"
    },
    {
      "inputs": [
        {
          "internalType": "uint256",
          "name": "tokenId",
          "type": "uint256"
        }
      ],
      "name": "getApproved",
      "outputs": [
        {
          "internalType": "address",
          "name": "",
          "type": "address"
        }
      ],
      "stateMutability": "view",
      "type": "function"
    },
    {
      "inputs": [
        {
          "internalType": "uint256",
          "name": "",
          "type": "uint256"
        }
      ],
      "name": "giftCards",
      "outputs": [
        {
          "internalType": "address",
          "name": "creator",
          "type": "address"
        },
        {
          "internalType": "address",
          "name": "currentOwner",
          "type": "address"
        },
        {
          "internalType": "uint256",
          "name": "price",
          "type": "uint256"
        },
        {
          "internalType": "string",
          "name": "message",
          "type": "string"
        },
        {
          "internalType": "bytes32",
          "name": "secretHash",
          "type": "bytes32"
        },
        {
          "internalType": "uint256",
          "name": "backgroundId",
          "type": "uint256"
        },
        {
          "internalType": "bool",
          "name": "isClaimable",
          "type": "bool"
        }
      ],
      "stateMutability": "view",
      "type": "function"
    },
    {
      "inputs": [
        {
          "internalType": "address",
          "name": "owner",
          "type": "address"
        },
        {
          "internalType": "address",
          "name": "operator",
          "type": "address"
        }
      ],
      "name": "isApprovedForAll",
      "outputs": [
        {
          "internalType": "bool",
          "name": "",
          "type": "bool"
        }
      ],
      "stateMutability": "view",
      "type": "function"
    },
    {
      "inputs": [
        {
          "internalType": "string",
          "name": "imageURI",
          "type": "string"
        },
        {
          "internalType": "string",
          "name": "category",
          "type": "string"
        }
      ],
      "name": "mintBackground",
      "outputs": [],
      "stateMutability": "nonpayable",
      "type": "function"
    },
    {
      "inputs": [],
      "name": "name",
      "outputs": [
        {
          "internalType": "string",
          "name": "",
          "type": "string"
        }
      ],
      "stateMutability": "view",
      "type": "function"
    },
    {
      "inputs": [],
      "name": "owner",
      "outputs": [
        {
          "internalType": "address",
          "name": "",
          "type": "address"
        }
      ],
      "stateMutability": "view",
      "type": "function"
    },
    {
      "inputs": [
        {
          "internalType": "uint256",
          "name": "tokenId",
          "type": "uint256"
        }
      ],
      "name": "ownerOf",
      "outputs": [
        {
          "internalType": "address",
          "name": "",
          "type": "address"
        }
      ],
      "stateMutability": "view",
      "type": "function"
    },
    {
      "inputs": [],
      "name": "renounceOwnership",
      "outputs": [],
      "stateMutability": "nonpayable",
      "type": "function"
    },
    {
      "inputs": [
        {
          "internalType": "address",
          "name": "from",
          "type": "address"
        },
        {
          "internalType": "address",
          "name": "to",
          "type": "address"
        },
        {
          "internalType": "uint256",
          "name": "tokenId",
          "type": "uint256"
        }
      ],
      "name": "safeTransferFrom",
      "outputs": [],
      "stateMutability": "nonpayable",
      "type": "function"
    },
    {
      "inputs": [
        {
          "internalType": "address",
          "name": "from",
          "type": "address"
        },
        {
          "internalType": "address",
          "name": "to",
          "type": "address"
        },
        {
          "internalType": "uint256",
          "name": "tokenId",
          "type": "uint256"
        },
        {
          "internalType": "bytes",
          "name": "data",
          "type": "bytes"
        }
      ],
      "name": "safeTransferFrom",
      "outputs": [],
      "stateMutability": "nonpayable",
      "type": "function"
    },
    {
      "inputs": [
        {
          "internalType": "address",
          "name": "operator",
          "type": "address"
        },
        {
          "internalType": "bool",
          "name": "approved",
          "type": "bool"
        }
      ],
      "name": "setApprovalForAll",
      "outputs": [],
      "stateMutability": "nonpayable",
      "type": "function"
    },
    {
      "inputs": [
        {
          "internalType": "uint256",
          "name": "giftCardId",
          "type": "uint256"
        },
        {
          "internalType": "string",
          "name": "secret",
          "type": "string"
        }
      ],
      "name": "setSecretKey",
      "outputs": [],
      "stateMutability": "nonpayable",
      "type": "function"
    },
    {
      "inputs": [
        {
          "internalType": "bytes4",
          "name": "interfaceId",
          "type": "bytes4"
        }
      ],
      "name": "supportsInterface",
      "outputs": [
        {
          "internalType": "bool",
          "name": "",
          "type": "bool"
        }
      ],
      "stateMutability": "view",
      "type": "function"
    },
    {
      "inputs": [],
      "name": "symbol",
      "outputs": [
        {
          "internalType": "string",
          "name": "",
          "type": "string"
        }
      ],
      "stateMutability": "view",
      "type": "function"
    },
    {
      "inputs": [
        {
          "internalType": "uint256",
          "name": "tokenId",
          "type": "uint256"
        }
      ],
      "name": "tokenURI",
      "outputs": [
        {
          "internalType": "string",
          "name": "",
          "type": "string"
        }
      ],
      "stateMutability": "view",
      "type": "function"
    },
    {
      "inputs": [
        {
          "internalType": "address",
          "name": "from",
          "type": "address"
        },
        {
          "internalType": "address",
          "name": "to",
          "type": "address"
        },
        {
          "internalType": "uint256",
          "name": "tokenId",
          "type": "uint256"
        }
      ],
      "name": "transferFrom",
      "outputs": [],
      "stateMutability": "nonpayable",
      "type": "function"
    },
    {
      "inputs": [
        {
          "internalType": "uint256",
          "name": "giftCardId",
          "type": "uint256"
        },
        {
          "internalType": "address",
          "name": "recipient",
          "type": "address"
        }
      ],
      "name": "transferGiftCard",
      "outputs": [],
      "stateMutability": "nonpayable",
      "type": "function"
    },
    {
      "inputs": [
        {
          "internalType": "address",
          "name": "newOwner",
          "type": "address"
        }
      ],
      "name": "transferOwnership",
      "outputs": [],
      "stateMutability": "nonpayable",
      "type": "function"
    }
  ],
  "bytecode": "0x60806040523480156200001157600080fd5b506040518060400160405280600d81526020016c109858dad9dc9bdd5b99139195609a1b815250604051806040016040528060058152602001641091d3919560da1b815250816000908162000067919062000194565b50600162000076828262000194565b505050620000936200008d6200009960201b60201c565b6200009d565b62000260565b3390565b600780546001600160a01b038381166001600160a01b0319831681179093556040519116919082907f8be0079c531659141344cd1fd0a4f28419497f9722a3daafe3b4186f6b6457e090600090a35050565b634e487b7160e01b600052604160045260246000fd5b600181811c908216806200011a57607f821691505b6020821081036200013b57634e487b7160e01b600052602260045260246000fd5b50919050565b601f8211156200018f57600081815260208120601f850160051c810160208610156200016a5750805b601f850160051c820191505b818110156200018b5782815560010162000176565b5050505b505050565b81516001600160401b03811115620001b057620001b0620000ef565b620001c881620001c1845462000105565b8462000141565b602080601f831160018114620002005760008415620001e75750858301515b600019600386901b1c1916600185901b1785556200018b565b600085815260208120601f198616915b82811015620002315788860151825594840194600190910190840162000210565b5085821015620002505787850151600019600388901b60f8161c191681555b5050505050600190811b01905550565b61278580620002706000396000f3fe60806040526004361061014b5760003560e01c8063715018a6116100b6578063a22cb4651161006f578063a22cb465146103cd578063ae072d98146103ed578063b88d4fde1461040d578063c87b56dd1461042d578063e985e9c51461044d578063f2fde38b1461046d57600080fd5b8063715018a61461031f57806384350e88146103345780638da5cb5b1461034757806395d89b41146103655780639898135f1461037a5780639ccde796146103ad57600080fd5b806323b872dd1161010857806323b872dd1461025157806342842e0e146102715780636352211e146102915780636557ddb6146102b15780636f273534146102d157806370a08231146102f157600080fd5b806301ffc9a71461015057806304bde4dd1461018557806306fdde03146101b5578063081812fc146101d7578063095ea7b31461020f578063112e870314610231575b600080fd5b34801561015c57600080fd5b5061017061016b366004611f58565b61048d565b60405190151581526020015b60405180910390f35b34801561019157600080fd5b506101a56101a0366004611f75565b6104b8565b60405161017c9493929190611fde565b3480156101c157600080fd5b506101ca6105fb565b60405161017c9190612026565b3480156101e357600080fd5b506101f76101f2366004611f75565b61068d565b6040516001600160a01b03909116815260200161017c565b34801561021b57600080fd5b5061022f61022a366004612055565b6106b4565b005b34801561023d57600080fd5b5061022f61024c36600461212b565b6107ce565b34801561025d57600080fd5b5061022f61026c36600461217b565b61096c565b34801561027d57600080fd5b5061022f61028c36600461217b565b61099d565b34801561029d57600080fd5b506101f76102ac366004611f75565b6109b8565b3480156102bd57600080fd5b5061022f6102cc3660046121b7565b610a18565b3480156102dd57600080fd5b5061022f6102ec3660046121fe565b610b74565b3480156102fd57600080fd5b5061031161030c366004612258565b610d18565b60405190815260200161017c565b34801561032b57600080fd5b5061022f610d9e565b61022f6103423660046121b7565b610db2565b34801561035357600080fd5b506007546001600160a01b03166101f7565b34801561037157600080fd5b506101ca610ee6565b34801561038657600080fd5b5061039a610395366004611f75565b610ef5565b60405161017c9796959493929190612273565b3480156103b957600080fd5b5061022f6103c83660046121b7565b610fcb565b3480156103d957600080fd5b5061022f6103e83660046122c7565b6110f0565b3480156103f957600080fd5b5061022f610408366004612303565b6110ff565b34801561041957600080fd5b5061022f61042836600461232f565b61122f565b34801561043957600080fd5b506101ca610448366004611f75565b611267565b34801561045957600080fd5b506101706104683660046123ab565b611272565b34801561047957600080fd5b5061022f610488366004612258565b6112a0565b60006001600160e01b03198216632483248360e11b14806104b257506104b282611319565b92915050565b600b60205260009081526040902080546001820180546001600160a01b0390921692916104e4906123d5565b80601f0160208091040260200160405190810160405280929190818152602001828054610510906123d5565b801561055d5780601f106105325761010080835404028352916020019161055d565b820191906000526020600020905b81548152906001019060200180831161054057829003601f168201915b505050505090806002018054610572906123d5565b80601f016020809104026020016040519081016040528092919081815260200182805461059e906123d5565b80156105eb5780601f106105c0576101008083540402835291602001916105eb565b820191906000526020600020905b8154815290600101906020018083116105ce57829003601f168201915b5050505050908060030154905084565b60606000805461060a906123d5565b80601f0160208091040260200160405190810160405280929190818152602001828054610636906123d5565b80156106835780601f1061065857610100808354040283529160200191610683565b820191906000526020600020905b81548152906001019060200180831161066657829003601f168201915b5050505050905090565b600061069882611369565b506000908152600460205260409020546001600160a01b031690565b60006106bf826109b8565b9050806001600160a01b0316836001600160a01b0316036107315760405162461bcd60e51b815260206004820152602160248201527f4552433732313a20617070726f76616c20746f2063757272656e74206f776e656044820152603960f91b60648201526084015b60405180910390fd5b336001600160a01b038216148061074d575061074d8133611272565b6107bf5760405162461bcd60e51b815260206004820152603d60248201527f4552433732313a20617070726f76652063616c6c6572206973206e6f7420746f60448201527f6b656e206f776e6572206f7220617070726f76656420666f7220616c6c0000006064820152608401610728565b6107c983836113c8565b505050565b60006107d9846109b8565b6001600160a01b03160361082f5760405162461bcd60e51b815260206004820152601960248201527f4261636b67726f756e6420646f6573206e6f74206578697374000000000000006044820152606401610728565b61083d600980546001019055565b600061084860095490565b6040805160e0810182523380825260208083019182528284018881526060840188815260006080860181905260a086018c905260c08601819052878152600a90935294909120835181546001600160a01b03199081166001600160a01b03928316178355935160018301805490951691161790925551600282015591519293509160038201906108d8908261245d565b506080820151600482015560a0820151600582015560c0909101516006909101805460ff19169115159190911790556000848152600b6020526040812060030180549161092483612533565b90915550506040805184815260208101869052339183917fcb17b14dc1b3bfc177c5da2e17b5979f59f3726b2f9531cafcce88d4e581bdb1910160405180910390a350505050565b6109763382611436565b6109925760405162461bcd60e51b81526004016107289061254c565b6107c9838383611495565b6107c98383836040518060200160405280600081525061122f565b6000818152600260205260408120546001600160a01b0316806104b25760405162461bcd60e51b8152602060048201526018602482015277115490cdcc8c4e881a5b9d985b1a59081d1bdad95b88125160421b6044820152606401610728565b6000828152600a6020526040902060018101546001600160a01b03163314610a905760405162461bcd60e51b815260206004820152602560248201527f4f6e6c7920746865206f776e65722063616e207365742074686520736563726560448201526474206b657960d81b6064820152608401610728565b600082604051602001610aa39190612599565b60408051601f1981840301815291815281516020928301206000818152600c90935291205490915060ff1615610b115760405162461bcd60e51b815260206004820152601360248201527214d958dc995d08185b1c9958591e481d5cd959606a1b6044820152606401610728565b6000818152600c60205260408082208054600160ff19918216811790925560048601859055600686018054909116909117905551339086907fdf26cd441ebec757e1b77c2bfe752583bca43d16b6c2fae589973335981903f1908490a450505050565b600d82604051610b849190612599565b9081526040519081900360200190205460ff1615610bf45760405162461bcd60e51b815260206004820152602760248201527f54686973206261636b67726f756e642068617320616c7265616479206265656e604482015266081b5a5b9d195960ca1b6064820152608401610728565b610c02600880546001019055565b6000610c0d60085490565b9050610c1933826115f9565b610c238184611613565b604080516080810182523381526020808201868152828401869052600060608401819052858152600b909252929020815181546001600160a01b0319166001600160a01b0390911617815591519091906001820190610c82908261245d565b5060408201516002820190610c97908261245d565b50606082015181600301559050506001600d84604051610cb79190612599565b908152604051908190036020018120805492151560ff1990931692909217909155339082907f8e9d6b3e133ded6626f66fb8db58ac95d6e96137513c5e700540c50322ad9b0890610d0b90879087906125b5565b60405180910390a3505050565b60006001600160a01b038216610d825760405162461bcd60e51b815260206004820152602960248201527f4552433732313a2061646472657373207a65726f206973206e6f7420612076616044820152683634b21037bbb732b960b91b6064820152608401610728565b506001600160a01b031660009081526003602052604090205490565b610da66116de565b610db06000611738565b565b6000828152600a6020526040902060028101543414610e055760405162461bcd60e51b815260206004820152600f60248201526e496e636f727265637420707269636560881b6044820152606401610728565b600181015460058201546001600160a01b03909116906000610e26826109b8565b905060006064610e373460286125e3565b610e4191906125fa565b90506000610e4f823461261c565b9050610e646001600160a01b0384168361178a565b610e776001600160a01b0386168261178a565b6001860180546001600160a01b0319163317905560038601610e99888261245d565b50336001600160a01b0316887f6f9d1723164a33a98728519d8759bb7337da141e445ac5daff6416492e1c765489604051610ed49190612026565b60405180910390a35050505050505050565b60606001805461060a906123d5565b600a6020526000908152604090208054600182015460028301546003840180546001600160a01b039485169594909316939192610f31906123d5565b80601f0160208091040260200160405190810160405280929190818152602001828054610f5d906123d5565b8015610faa5780601f10610f7f57610100808354040283529160200191610faa565b820191906000526020600020905b815481529060010190602001808311610f8d57829003601f168201915b50505050600483015460058401546006909401549293909290915060ff1687565b6000828152600a60205260409020600681015460ff1661102d5760405162461bcd60e51b815260206004820152601a60248201527f476966742063617264206973206e6f7420636c61696d61626c650000000000006044820152606401610728565b8160405160200161103e9190612599565b604051602081830303815290604052805190602001208160040154146110975760405162461bcd60e51b815260206004820152600e60248201526d125b9d985b1a59081cd958dc995d60921b6044820152606401610728565b6001810180546001600160a01b0319163390811790915560006004830181905560068301805460ff1916905560405185917f7ce61bb11606b61fdfb244cfc4e3d1872435f6b733a5e725b3813d3295eb737091a3505050565b6110fb3383836118a3565b5050565b6000828152600a6020526040902060018101546001600160a01b0316331461117b5760405162461bcd60e51b815260206004820152602960248201527f4f6e6c7920746865206f776e65722063616e207472616e73666572207468652060448201526819da599d0818d85c9960ba1b6064820152608401610728565b6001600160a01b0382166111d15760405162461bcd60e51b815260206004820152601960248201527f496e76616c696420726563697069656e742061646472657373000000000000006044820152606401610728565b6001810180546001600160a01b0319166001600160a01b03841690811790915560068201805460ff19169055604051339085907fdf26cd441ebec757e1b77c2bfe752583bca43d16b6c2fae589973335981903f190600090a4505050565b6112393383611436565b6112555760405162461bcd60e51b81526004016107289061254c565b61126184848484611969565b50505050565b60606104b28261199c565b6001600160a01b03918216600090815260056020908152604080832093909416825291909152205460ff1690565b6112a86116de565b6001600160a01b03811661130d5760405162461bcd60e51b815260206004820152602660248201527f4f776e61626c653a206e6577206f776e657220697320746865207a65726f206160448201526564647265737360d01b6064820152608401610728565b61131681611738565b50565b60006001600160e01b031982166380ac58cd60e01b148061134a57506001600160e01b03198216635b5e139f60e01b145b806104b257506301ffc9a760e01b6001600160e01b03198316146104b2565b6000818152600260205260409020546001600160a01b03166113165760405162461bcd60e51b8152602060048201526018602482015277115490cdcc8c4e881a5b9d985b1a59081d1bdad95b88125160421b6044820152606401610728565b600081815260046020526040902080546001600160a01b0319166001600160a01b03841690811790915581906113fd826109b8565b6001600160a01b03167f8c5be1e5ebec7d5bd14f71427d1e84f3dd0314c0f7b2291e5b200ac8c7c3b92560405160405180910390a45050565b600080611442836109b8565b9050806001600160a01b0316846001600160a01b0316148061146957506114698185611272565b8061148d5750836001600160a01b03166114828461068d565b6001600160a01b0316145b949350505050565b826001600160a01b03166114a8826109b8565b6001600160a01b0316146114ce5760405162461bcd60e51b81526004016107289061262f565b6001600160a01b0382166115305760405162461bcd60e51b8152602060048201526024808201527f4552433732313a207472616e7366657220746f20746865207a65726f206164646044820152637265737360e01b6064820152608401610728565b826001600160a01b0316611543826109b8565b6001600160a01b0316146115695760405162461bcd60e51b81526004016107289061262f565b600081815260046020908152604080832080546001600160a01b03199081169091556001600160a01b0387811680865260038552838620805460001901905590871680865283862080546001019055868652600290945282852080549092168417909155905184937fddf252ad1be2c89b69c2b068fc378daa952ba7f163c4a11628f55a4df523b3ef91a4505050565b6110fb828260405180602001604052806000815250611aa4565b6000828152600260205260409020546001600160a01b031661168e5760405162461bcd60e51b815260206004820152602e60248201527f45524337323155524953746f726167653a2055524920736574206f66206e6f6e60448201526d32bc34b9ba32b73a103a37b5b2b760911b6064820152608401610728565b60008281526006602052604090206116a6828261245d565b506040518281527ff8e1a15aba9398e019f0b49df1a4fde98ee17ae345cb5f6b5e2c27f5033e8ce79060200160405180910390a15050565b6007546001600160a01b03163314610db05760405162461bcd60e51b815260206004820181905260248201527f4f776e61626c653a2063616c6c6572206973206e6f7420746865206f776e65726044820152606401610728565b600780546001600160a01b038381166001600160a01b0319831681179093556040519116919082907f8be0079c531659141344cd1fd0a4f28419497f9722a3daafe3b4186f6b6457e090600090a35050565b804710156117da5760405162461bcd60e51b815260206004820152601d60248201527f416464726573733a20696e73756666696369656e742062616c616e63650000006044820152606401610728565b6000826001600160a01b03168260405160006040518083038185875af1925050503d8060008114611827576040519150601f19603f3d011682016040523d82523d6000602084013e61182c565b606091505b50509050806107c95760405162461bcd60e51b815260206004820152603a60248201527f416464726573733a20756e61626c6520746f2073656e642076616c75652c207260448201527f6563697069656e74206d617920686176652072657665727465640000000000006064820152608401610728565b816001600160a01b0316836001600160a01b0316036119045760405162461bcd60e51b815260206004820152601960248201527f4552433732313a20617070726f766520746f2063616c6c6572000000000000006044820152606401610728565b6001600160a01b03838116600081815260056020908152604080832094871680845294825291829020805460ff191686151590811790915591519182527f17307eab39ab6107e8899845ad3d59bd9653f200f220920489ca2b5937696c319101610d0b565b611974848484611495565b61198084848484611ad7565b6112615760405162461bcd60e51b815260040161072890612674565b60606119a782611369565b600082815260066020526040812080546119c0906123d5565b80601f01602080910402602001604051908101604052809291908181526020018280546119ec906123d5565b8015611a395780601f10611a0e57610100808354040283529160200191611a39565b820191906000526020600020905b815481529060010190602001808311611a1c57829003601f168201915b505050505090506000611a5760408051602081019091526000815290565b90508051600003611a69575092915050565b815115611a9b578082604051602001611a839291906126c6565b60405160208183030381529060405292505050919050565b61148d84611bd8565b611aae8383611c4c565b611abb6000848484611ad7565b6107c95760405162461bcd60e51b815260040161072890612674565b60006001600160a01b0384163b15611bcd57604051630a85bd0160e11b81526001600160a01b0385169063150b7a0290611b1b9033908990889088906004016126f5565b6020604051808303816000875af1925050508015611b56575060408051601f3d908101601f19168201909252611b5391810190612732565b60015b611bb3573d808015611b84576040519150601f19603f3d011682016040523d82523d6000602084013e611b89565b606091505b508051600003611bab5760405162461bcd60e51b815260040161072890612674565b805181602001fd5b6001600160e01b031916630a85bd0160e11b14905061148d565b506001949350505050565b6060611be382611369565b6000611bfa60408051602081019091526000815290565b90506000815111611c1a5760405180602001604052806000815250611c45565b80611c2484611dd7565b604051602001611c359291906126c6565b6040516020818303038152906040525b9392505050565b6001600160a01b038216611ca25760405162461bcd60e51b815260206004820181905260248201527f4552433732313a206d696e7420746f20746865207a65726f20616464726573736044820152606401610728565b6000818152600260205260409020546001600160a01b031615611d075760405162461bcd60e51b815260206004820152601c60248201527f4552433732313a20746f6b656e20616c7265616479206d696e746564000000006044820152606401610728565b6000818152600260205260409020546001600160a01b031615611d6c5760405162461bcd60e51b815260206004820152601c60248201527f4552433732313a20746f6b656e20616c7265616479206d696e746564000000006044820152606401610728565b6001600160a01b038216600081815260036020908152604080832080546001019055848352600290915280822080546001600160a01b0319168417905551839291907fddf252ad1be2c89b69c2b068fc378daa952ba7f163c4a11628f55a4df523b3ef908290a45050565b60606000611de483611e6a565b600101905060008167ffffffffffffffff811115611e0457611e0461207f565b6040519080825280601f01601f191660200182016040528015611e2e576020820181803683370190505b5090508181016020015b600019016f181899199a1a9b1b9c1cb0b131b232b360811b600a86061a8153600a8504945084611e3857509392505050565b60008072184f03e93ff9f4daa797ed6e38ed64bf6a1f0160401b8310611ea95772184f03e93ff9f4daa797ed6e38ed64bf6a1f0160401b830492506040015b6d04ee2d6d415b85acef81000000008310611ed5576d04ee2d6d415b85acef8100000000830492506020015b662386f26fc100008310611ef357662386f26fc10000830492506010015b6305f5e1008310611f0b576305f5e100830492506008015b6127108310611f1f57612710830492506004015b60648310611f31576064830492506002015b600a83106104b25760010192915050565b6001600160e01b03198116811461131657600080fd5b600060208284031215611f6a57600080fd5b8135611c4581611f42565b600060208284031215611f8757600080fd5b5035919050565b60005b83811015611fa9578181015183820152602001611f91565b50506000910152565b60008151808452611fca816020860160208601611f8e565b601f01601f19169290920160200192915050565b6001600160a01b038516815260806020820181905260009061200290830186611fb2565b82810360408401526120148186611fb2565b91505082606083015295945050505050565b602081526000611c456020830184611fb2565b80356001600160a01b038116811461205057600080fd5b919050565b6000806040838503121561206857600080fd5b61207183612039565b946020939093013593505050565b634e487b7160e01b600052604160045260246000fd5b600067ffffffffffffffff808411156120b0576120b061207f565b604051601f8501601f19908116603f011681019082821181831017156120d8576120d861207f565b816040528093508581528686860111156120f157600080fd5b858560208301376000602087830101525050509392505050565b600082601f83011261211c57600080fd5b611c4583833560208501612095565b60008060006060848603121561214057600080fd5b8335925060208401359150604084013567ffffffffffffffff81111561216557600080fd5b6121718682870161210b565b9150509250925092565b60008060006060848603121561219057600080fd5b61219984612039565b92506121a760208501612039565b9150604084013590509250925092565b600080604083850312156121ca57600080fd5b82359150602083013567ffffffffffffffff8111156121e857600080fd5b6121f48582860161210b565b9150509250929050565b6000806040838503121561221157600080fd5b823567ffffffffffffffff8082111561222957600080fd5b6122358683870161210b565b9350602085013591508082111561224b57600080fd5b506121f48582860161210b565b60006020828403121561226a57600080fd5b611c4582612039565b6001600160a01b038881168252871660208201526040810186905260e0606082018190526000906122a690830187611fb2565b60808301959095525060a0810192909252151560c090910152949350505050565b600080604083850312156122da57600080fd5b6122e383612039565b9150602083013580151581146122f857600080fd5b809150509250929050565b6000806040838503121561231657600080fd5b8235915061232660208401612039565b90509250929050565b6000806000806080858703121561234557600080fd5b61234e85612039565b935061235c60208601612039565b925060408501359150606085013567ffffffffffffffff81111561237f57600080fd5b8501601f8101871361239057600080fd5b61239f87823560208401612095565b91505092959194509250565b600080604083850312156123be57600080fd5b6123c783612039565b915061232660208401612039565b600181811c908216806123e957607f821691505b60208210810361240957634e487b7160e01b600052602260045260246000fd5b50919050565b601f8211156107c957600081815260208120601f850160051c810160208610156124365750805b601f850160051c820191505b8181101561245557828155600101612442565b505050505050565b815167ffffffffffffffff8111156124775761247761207f565b61248b8161248584546123d5565b8461240f565b602080601f8311600181146124c057600084156124a85750858301515b600019600386901b1c1916600185901b178555612455565b600085815260208120601f198616915b828110156124ef578886015182559484019460019091019084016124d0565b508582101561250d5787850151600019600388901b60f8161c191681555b5050505050600190811b01905550565b634e487b7160e01b600052601160045260246000fd5b6000600182016125455761254561251d565b5060010190565b6020808252602d908201527f4552433732313a2063616c6c6572206973206e6f7420746f6b656e206f776e6560408201526c1c881bdc88185c1c1c9bdd9959609a1b606082015260800190565b600082516125ab818460208701611f8e565b9190910192915050565b6040815260006125c86040830185611fb2565b82810360208401526125da8185611fb2565b95945050505050565b80820281158282048414176104b2576104b261251d565b60008261261757634e487b7160e01b600052601260045260246000fd5b500490565b818103818111156104b2576104b261251d565b60208082526025908201527f4552433732313a207472616e736665722066726f6d20696e636f72726563742060408201526437bbb732b960d91b606082015260800190565b60208082526032908201527f4552433732313a207472616e7366657220746f206e6f6e20455243373231526560408201527131b2b4bb32b91034b6b83632b6b2b73a32b960711b606082015260800190565b600083516126d8818460208801611f8e565b8351908301906126ec818360208801611f8e565b01949350505050565b6001600160a01b038581168252841660208201526040810183905260806060820181905260009061272890830184611fb2565b9695505050505050565b60006020828403121561274457600080fd5b8151611c4581611f4256fea2646970667358221220af893660412a89f2e42270f0e52a1dcec77a008efafc82151d265a8dd7cbe9bb64736f6c63430008130033",
  "linkReferences": {},
  "deployedLinkReferences": {}
}